:1000000070260020310100002902000029020000B2
:1000100000000000000000000000000000000000E0
:1000200000000000000000000000000029020000A5
:10003000000000000000000029020000290200006A
:10004000290200002902000029020000BD40000032
:10005000F139000029020000290200006594000027
:1000600029020000290200002902000029020000E4
:1000700029020000290200002902000029020000D4
:10008000D5650000290200002902000029020000B5
:1000900029020000290200002902000029020000B4
:1000A00029020000290200002902000029020000A4
:1000B0000000000010B5064C2378002B07D1054B3B
:1000C000002B02D0044800E000BF0123237010BDC4
:1000D0006801002000000000C0C50000084B10B5FA
:1000E000002B03D00749084800E000BF0748036819
:1000F000002B00D110BD064B002BFBD09847F9E731
:10010000000000006C010020C0C50000C0C5000058
:100110000000000080B500AF034B9847034B9847A1
:10012000C046BD4680BDC04649120000B5B80000BB
:1001300080B582B000AF2F4B7B602F4B3B607A685D
:100140003B689A420CD007E03B681A1D3A607A6817
:10015000111D796012681A603A68284B9A42F3D3ED
:10016000274B3B6004E03B681A1D3A6000221A608E
:100170003A68244B9A42F6D3234B7B60234B7A6830
:10018000FF218A439A60224A90235B000221D150CA
:10019000204AD37803218B43191C02230B43D370CD
:1001A0001C4AD3780C218B43191C08230B43D370B2
:1001B000194A937B30218B43191C20230B439373E3
:1001C000154A937B0C218B43191C08230B43937313
:1001D000114A937B03218B43191C02230B43937316
:1001E0000E4A536880210B4353600D4B98470D4BCB
:1001F0009847FEE7C0C5000000000020680100200D
:1002000068010020700600200000000000ED00E002
:100210000070004100500041004800410040004192
:10022000FDB90000399B000080B500AFFEE780B546
:1002300082B000AF78600A00BB1C1A807B68BA1CD1
:1002400012885A80C046BD4602B080BD80B584B0D9
:1002500000AFF8607A600B23FB180A1C1A700B239E
:10026000FB181B78FA68DB01D31808337A681A6028
:10027000C046BD4604B080BD80B584B000AFF86014
:100280007A600B23FB180A1C1A700B23FB181B78CF
:10029000FA68DB01D31804337A681A60C046BD4699
:1002A00004B080BD80B584B000AFF8607A600B23E5
:1002B000FB180A1C1A700B23FB181B78FA68DB0169
:1002C000D31818337A681A60C046BD4604B080BDA2
:1002D00080B584B000AFF8607A600B23FB180A1C6D
:1002E0001A700B23FB181B78FA68DB01D318143340
:1002F0007A681A60C046BD4604B080BD90B585B02E
:1003000000AF78600C0010001900FB1C221C1A7052
:10031000BB1C021C1A707B1C0A1C1A70FB1C19786F
:10032000BB1C1A780F23FB1878683024C9014118C8
:100330008A18121912781A700F23FB180F22BA1894
:1003400012780F218A431A707B1C1B780F221340EE
:10035000D9B20F23FB180F22BA1812780A431A7069
:10036000FB1C1A78BB1C1B7879683020D2018A18D4
:10037000D3181B180F22BA1812781A70C046BD463F
:1003800005B090BD90B585B000AF78600C0010004E
:100390001900FB1C221C1A70BB1C021C1A707B1C4F
:1003A0000A1C1A70FB1C1978BB1C1A780F23FB1847
:1003B00078683024C90141188A18121912781A7005
:1003C0000F23FB180F22BA1812780F210A401A7057
:1003D0007B1C1B781B01D9B20F23FB180F22BA1804
:1003E00012780A431A70FB1C1A78BB1C1B787968B8
:1003F0003020D2018A18D3181B180F22BA1812788D
:100400001A70C046BD4605B090BD90B585B000AF2E
:1004100078600C0010001900FB1C221C1A70BB1C19
:10042000021C1A707B1C0A1C1A70FB1C1978BB1C5E
:100430001A780F23FB1878684024C90141188A18DC
:10044000121912781A700F23FB180F22BA1812789B
:1004500001218A431A707B1C19780F23FB180F2285
:10046000BA1812780A431A70FB1C1A78BB1C1B7846
:1004700079684020D2018A18D3181B180F22BA18A5
:1004800012781A70C046BD4605B090BDB0B582B0B6
:1004900000AF786008001100FB1C021C1A70BB1C26
:1004A0000A1C1A70FB1C1A78BB1C1B78F91C0878F4
:1004B000B91C09787C684025C001201841184919E9
:1004C0000978C9B204200143CCB279684020D20136
:1004D0008A18D3181B18221C1A70C046BD4602B0D9
:1004E000B0BDB0B582B000AF786008001100FB1C51
:1004F000021C1A70BB1C0A1C1A70FB1C1A78BB1C4D
:100500001B78F91C0878B91C09787C684025C00163
:100510002018411849190978C9B204208143CCB286
:1005200079684020D2018A18D3181B18221C1A702F
:10053000C046BD4602B0B0BD80B584B000AFF86023
:100540007A600B23FB180A1C1A700B23FB181B780C
:10055000FA68DB01D31828337A681A60C046BD46B2
:1005600004B080BD80B582B000AF39601100FB1DC2
:10057000021C1A70BB1D0A1C1A70BB1D1B78012BB4
:1005800023D0022B3FD0002B5DD13A68FB1D197898
:10059000C023DB051800314B98473B681B041B0C3C
:1005A0008022D2051A43FB1D1B782D4819002D4BC4
:1005B00098473B681B0CC02212061A43FB1D1B7890
:1005C00027481900274B984743E03A68FB1D1978E4
:1005D000C023DB051800214B98473B681B041B0C0C
:1005E000214A1A43FB1D1B781D4819001D4B9847D3
:1005F0003B681B0C1D4A1A43FB1D1B781848190049
:10060000184B984725E03A68FB1D1978C023DB0595
:100610001800174B98473B681B041B0C8022D2051F
:100620001A43FB1D1B780E4819000E4B98473B6878
:100630001B0CC02212061A43FB1D1B780848190028
:10064000084B984705E00B4B4522190000200A4B48
:100650009847C046BD4602B080BDC0467902000042
:10066000004400413905000000000240000002C0C3
:100670004D020000A8C20000D52C000080B582B059
:1006800000AF39601100FB1D021C1A70BB1D0A1C53
:100690001A70BB1D1B78002B08D03A68FB1D197817
:1006A000C023DB051800074B984707E03A68FB1D9D
:1006B0001978C023DB051800034B9847C046BD4698
:1006C00002B080BDA5020000D102000090B583B049
:1006D00000AF040008001100FB1D221C1A70BB1D96
:1006E000021C1A707B1D0A1C1A707B1D1B78012BC3
:1006F0000CD0022B29D0002B46D1BB1D1A78FB1D34
:100700001B7827481900274B984744E0BB1D1B78EE
:1007100001229A40FB1D1978C023DB051800224BEB
:100720009847BB1D1A78FB1D1B781D4819001F4BED
:100730009847BB1D1B7801229A40FB1D1978C023E6
:10074000DB0518001A4B984725E0BB1D1B780122DA
:100750009A40FB1D1978C023DB051800124B9847FF
:10076000BB1D1A78FB1D1B780D4819000F4B9847CD
:10077000BB1D1B7801229A40FB1D1978C023DB05A5
:1007800018000C4B984706E00B4B882219000020FC
:100790000A4B9847C046C046BD4603B090BDC04610
:1007A00000440041E3040000790200008D040000D1
:1007B000A5020000D1020000A8C20000D52C000054
:1007C00090B585B000AF786039607B685A090F2317
:1007D000FB181A707B68DAB20E23FB181F210A403F
:1007E0001A703B6801330AD10E23FB181A780F23C5
:1007F000FB1819781B4800231B4CA0472EE00E2342
:10080000FB181A780F23FB18197816480123164C89
:10081000A0470E23FB181B78012213400FD00E2394
:10082000FB181B785B08DAB23B68D8B20F23FB18C1
:1008300019780C4C030020000C4CA0470EE00E234E
:10084000FB181B785B08DAB23B68D8B20F23FB18A1
:100850001978044C03002000054CA047C046BD4653
:1008600005B090BD004400410B040000850300006A
:10087000FD02000080B582B000AF0200FB1D1A70BF
:10088000BB1D0A1C1A70FB1D1B785B09D8B2FB1D2F
:100890001B781F221340D9B2BB1D1B781A00034BD3
:1008A0009847C046BD4602B080BDC046CD06000098
:1008B00080B582B000AF786039603A687B6811001B
:1008C0001800034B9847C046BD4602B080BDC046E5
:1008D000C107000080B582B000AF0200FB1D1A7096
:1008E000BB1D0A1C1A70FB1D1B785B09D8B2FB1DCF
:1008F0001B781F22134001229A401100BB1D1B7858
:100900001A00034B9847C046BD4602B080BDC046A2
:100910006505000080B582B000AF0200FB1D1A70B3
:10092000BB1D0A1C1A70FB1D1B785B09D8B2FB1D8E
:100930001B781F22134001229A401100BB1D1B7817
:100940001A00034B9847C046BD4602B080BDC04662
:100950007D06000080B500AF024B9847C046BD46FB
:1009600080BDC046B936000080B582B000AF02003D
:10097000FB1D1A70BB1D0A1C1A70FB1D1B789BB255
:100980003F2213409AB2BB1D1B789BB21B0299B247
:10099000F0231B010B409BB213439BB28022D20178
:1009A00013439BB2044A19001000044B9847C046F9
:1009B000BD4602B080BDC046000C00402F020000C2
:1009C00080B582B000AF78607B68012B01D1002335
:1009D00023E07B68022B01D101231EE07B68032BFF
:1009E00001D1022319E07B680E4A934201D103230F
:1009F00013E07B680C4A934201D104230DE07B682D
:100A00000A4A934201D1052307E07B68084A9342D2
:100A100001D1062301E00D235B421800BD4602B060
:100A200080BDC04600200041004000410048004118
:100A30000050004180B582B000AF78607A688223B0
:100A4000DB059A4201D100231FE07B68114A9342E3
:100A500001D1012319E07B680F4A934201D102239F
:100A600013E07B680D4A934201D103230DE07B68BC
:100A70000B4A934201D1042307E07B68094A934261
:100A800001D1052301E00D235B421800BD4602B0F1
:100A900080BDC046002000410040004100440041AC
:100AA000004800410050004180B584B000AF020012
:100AB0003960FB1D1A703B689B0A3F221340FB60A4
:100AC000FB1D1B78012B1ED002DC002B05D044E05F
:100AD000022B22D0032B36D03FE03B681800264B78
:100AE0009847031E40DB3B681800234B98470300E0
:100AF000FB60224B214A52690120F96888400100BD
:100B00000A435A6130E01D4B1C4A92690120F96882
:100B1000884001000A439A6129E03B681800184B9D
:100B20009847031E22DB3B681800154B98470300CB
:100B3000FB60124B114AD2690120F968884001001C
:100B40000A43DA6112E00D4B0C4A126A0120F9687F
:100B5000884001000A431A6209E00A4B9B221900EF
:100B60000020094B984702E0C04600E0C046C0465E
:100B7000BD4604B080BDC046C1090000000400406D
:100B8000350A0000C4C20000D52C000080B500AFBB
:100B9000002102200D4B98470D4B190002200D4BF0
:100BA000984700210320094B98470B4B190003205D
:100BB000084B984700210420044B9847074B190025
:100BC0000420044B9847C046BD4680BDD5080000B0
:100BD00001000200B1080000010003000100040050
:100BE00080B500AF054B19000320054B9847002145
:100BF0001E20044B9847C046BD4680BD00400042C1
:100C0000A90A00006909000080B500AF064B9847AB
:100C1000064B98470649074B00221800064B984799
:100C2000C046BD4680BDC046E10B00008D0B0000F4
:100C3000004000425C050020C115000080B500AFF7
:100C4000002105200A4B984701212220094B984793
:100C500000212220084B984788239B03190022205B
:100C6000064B9847064B9847C046BD4680BDC046D8
:100C700069090000D508000075080000B1080000EF
:100C8000F116000080B500AF064B19000A20064B94
:100C90009847064B19000B20034B9847C046BD46AA
:100CA00080BDC04602000A00B108000002000B002F
:100CB00080B500AF054B19000320054B9847002174
:100CC0001420044B9847C046BD4680BD0008004232
:100CD000A90A00006909000080B500AF064B9847DB
:100CE0000649074B00221800064B9847064B9847C9
:100CF000C046BD4680BDC046B10C000000080042A1
:100D000094050020D11F0000850C000080B500AFC5
:100D100001210820094B9847094B19000820094B6D
:100D2000984701210920054B9847074B19000920D6
:100D3000044B9847C046BD4680BDC04675080000BC
:100D400003000800B10800000300090080B500AFEF
:100D5000074B19000320074B984700211620064B2C
:100D6000984703211320044B9847C046BD4680BDD9
:100D700000100042A90A00006909000080B500AF18
:100D8000064B9847064A074B11001800064B984738
:100D9000064B9847C046BD4680BDC0464D0D00007D
:100DA00000100042A0050020FD1800000D0D0000FD
:100DB00080B500AF00211620094B9847094B190058
:100DC0001620094B984700211720054B9847074BE1
:100DD00019001720044B9847C046BD4680BDC04649
:100DE0007508000002001600B1080000020017009C
:100DF00080B500AF074B19000320074B984700212F
:100E00001720064B984703211320044B9847C046F0
:100E1000BD4680BD00140042A90A00006909000017
:100E200080B500AF064B9847064A074B11001800E3
:100E3000064B9847064B9847C046BD4680BDC04606
:100E4000F10D0000001400423C050020FD180000D8
:100E5000B10D000080B500AF01210C20134B984765
:100E600000210C20124B9847124B19000C20124BFA
:100E7000984700212A20114B984702212A200B4B2A
:100E800098470F4B19002A200B4B984700212B2025
:100E90000A4B984702212B20044B9847094B190015
:100EA0002B20054B9847C046BD4680BDD5080000A5
:100EB0007508000003000C00B108000015090000CF
:100EC00003002A0003002B0080B500AF054B19007A
:100ED0000320054B984700211820044B9847C04633
:100EE000BD4680BD00180042A90A00006909000043
:100EF00080B500AF064B9847064A074B1100180013
:100F0000064B9847064B9847C046BD4680BDC04635
:100F1000C90E00000018004224050020A11A00009C
:100F2000550E000080B500AF01213E20134B9847BD
:100F300000213E20124B9847124B19003E20124BC5
:100F4000984700212020114B9847022120200B4B6D
:100F500098470F4B190020200B4B98470021212068
:100F60000A4B984702212120044B9847094B19004E
:100F70002120054B9847C046BD4680BDD5080000DE
:100F80007508000003003E00B108000015090000CC
:100F9000030020000300210080B500AF054B1900BD
:100FA0000320054B984700211920044B9847C04661
:100FB000BD4680BD001C0042A90A0000690900006E
:100FC00080B500AF064B9847064A074B1100180042
:100FD000064B9847064B9847C046BD4680BDC04665
:100FE000990F0000001C00427C050020A11A00009F
:100FF000250F000080B500AF034B1800034B984746
:10100000C046BD4680BDC04610E000E05916000055
:1010100080B500AF094B19000120094B984700210A
:101020000420084B9847084B984702000349074B98
:101030001800074B9847C046BD4680BD00140040CD
:10104000A90A000069090000B1400000C0050020A5
:10105000991C000080B500AF034B19000720034B1B
:101060009847C046BD4680BD04000700B108000097
:1010700080B500AF054B19000320054B98470021B0
:101080001A20044B9847C046BD4680BD002400424C
:10109000A90A00006909000080B500AF074B984716
:1010A000074B9847074B984702000749074B180022
:1010B000074B9847C046BD4680BDC0467110000032
:1010C0005510000055650000002400426005002016
:1010D0005D19000080B500AF022110200E4B98472B
:1010E000002110200D4B984701235B42190010206E
:1010F0000B4B984702211120074B984700211120E4
:10110000064B984701235B4219001120044B984776
:10111000C046BD4680BDC046D50800007508000029
:10112000B108000080B500AF054B19000320054B46
:10113000984700211B20044B9847C046BD4680BD00
:1011400000280042A90A00006909000080B500AF2C
:10115000074B9847074B9847074B984702000749AA
:10116000074B1800074B9847C046BD4680BDC04698
:1011700025110000D5100000556500000028004230
:10118000080500205D19000080B500AF022118207D
:10119000114B984700211820104B98470021182028
:1011A0000F4B98470F4B190018200F4B98470221FF
:1011B0001920094B984700211920084B9847002116
:1011C0001920074B9847094B19001920064B9847DF
:1011D000C046BD4680BDC046D508000015090000C8
:1011E0007508000006001800B1080000060019008C
:1011F00080B500AF084B19000220084B9847064BFA
:1012000019000020054B984707210620044B9847FA
:10121000C046BD4680BDC04600500041A90A00003E
:101220006909000080B500AF044B9847044B98470C
:10123000044B9847C046BD4680BDC046F111000032
:101240009D2600008911000080B500AFCB4B984768
:1012500001210520CA4B984701210520C94B984719
:1012600001235B4219000520C74B98470021062047
:10127000C64B984702210620C14B984701235B4289
:1012800019000620C04B984701210D20BF4B9847FD
:1012900002210D20BA4B984701235B4219000D2013
:1012A000B94B984701210E20B84B984702210E20D8
:1012B000B34B984701235B4219000E20B24B98476D
:1012C00000210F20B14B984702210F20AC4B9847CB
:1012D00001235B4219000F20AB4B984700211220DD
:1012E000AA4B984702211220A54B984701235B4245
:1012F00019001220A44B984700211320A34B9847B4
:10130000022113209E4B984701235B4219001320B2
:101310009D4B9847002114209C4B98470221142094
:10132000974B984701235B4219001420964B98472E
:1013300000211520954B984702211520904B984786
:1013400001235B42190015208F4B984700211B2079
:101350008E4B984702211B20894B984701235B4203
:1013600019001B20884B984700211C20874B984769
:1013700002211C20824B984701235B4219001C204C
:10138000814B984700212320804B9847022123203E
:101390007B4B984701235B42190023207A4B9847E7
:1013A00001212420764B984701212420754B984732
:1013B00001235B4219002420734B9847012125200B
:1013C0006F4B9847012125206E4B984701235B42C4
:1013D000190025206C4B984701212620684B98471F
:1013E00001212620674B984701235B4219002620E4
:1013F000654B984700212720644B984702212720FE
:101400005F4B984701235B42190027205E4B9847AA
:10141000002128205D4B984702212820584B9847EF
:1014200001235B4219002820574B984700212920AF
:10143000564B984702212920514B984701235B4284
:1014400019002920504B984700212C204F4B9847DA
:1014500002212C204A4B984701235B4219002C2083
:10146000494B984700212D20484B984702212D20B9
:10147000434B984701235B4219002D20424B98476C
:1014800000212E20414B984702212E203C4B9847AB
:1014900001235B4219002E203B4B984700212F204F
:1014A0003A4B984702212F20354B984701235B4246
:1014B00019002F20344B984701213020304B98479A
:1014C000012130202F4B984701235B421900302027
:1014D0002D4B984701213120294B9847012131207C
:1014E000284B984701235B4219003120264B98472F
:1014F00000213620254B984702213620204B984763
:1015000001235B42190036201F4B984700213720EA
:101510001E4B984702213720194B984701235B4205
:1015200019003720184B984700213F20174B984748
:1015300002213F20124B984701235B4219003F20B4
:10154000114B9847124B9847124B9847124B9847AC
:10155000124B9847124B9847124B9847124B98479B
:10156000124B9847124B9847124B9847124B98478B
:10157000124B9847C046BD4680BDC0465509000085
:10158000D508000075080000B1080000150900002A
:10159000090C00003D0C0000D90C00007D0D00007E
:1015A000210E0000F10E0000C10F0000F50F000039
:1015B00011100000991000004D11000025120000CC
:1015C00080B584B000AFF860B9607A60FB68002B2A
:1015D00004D0BB68002B01D0012300E000231A1CBB
:1015E00001231340DBB2084939221800074B984702
:1015F000FB68BA6811001800054B984703001800F3
:10160000BD4604B080BDC046DCC20000D52C000041
:10161000F933000080B584B000AF7860EFF3108339
:10162000FB60FA687B681A6072B6BFF35F8FC046D2
:10163000BD4604B080BD80B584B000AF7860BFF314
:101640005F8F7B681B68FB60FB6883F31088C04674
:10165000BD4604B080BD000080B582B000AF7860A8
:10166000054B7A681A60044B1B681800034B9847B7
:10167000C046BD4602B080BD84010020655E00000A
:1016800090B583B000AF0200BB1D1A80074B1C68E9
:10169000BB1D1B881800064B98470300190020004B
:1016A000044B9847C046BD4603B090BD840100205E
:1016B00055350000815E000090B583B000AF020098
:1016C000BB1D1A80074B1C68BB1D1B881800064BEE
:1016D0009847030019002000044B9847C046BD46B8
:1016E00003B090BD8401002069360000815E0000D7
:1016F00080B582B000AFBB1D00221A8013E0BB1D75
:101700001B880F4ADB00D3180433012252421A60AF
:10171000BB1D1A880A4BD2000021D150BB1D1A886C
:10172000BB1D01321A80BB1D1B88002BE7D0054B67
:101730001800054B984703001800BD4602B080BD55
:10174000880100204D1700001939000080B584B0D1
:1017500000AF78600F23FB1800221A700E23FB18CD
:1017600001221A7050E00E23FB181A780F23FB1881
:101770001B78D3185A100D23FB181A700D23FB1871
:101780001B78002B49D10D23FB181B78264ADB0060
:10179000D31804331A687B689A420FD10D23FB18C3
:1017A0001A78214BD200D358002B38D00D23FB18C8
:1017B0001A781D4BD200D358984730E00D23FB1800
:1017C0001B78194ADB00D31804331A687B689A42E5
:1017D0000DD20F23FB180D22BA18127801321A709D
:1017E0000E23FB180E22BA1812781A700CE00E2382
:1017F000FB180D22BA181278013A1A700F23FB1841
:101800000F22BA1812781A700E23FA180F23FB1839
:1018100012781B789A42A6D202E0C04600E0C04689
:10182000BD4604B080BDC0468801002080B58AB0A6
:1018300000AFF860B960BB1D1A80FB68143B7B6287
:101840007B6A9A8B1423FB181A80BB1D1A881423F9
:10185000FB185A601423FB180C4A5A801423FB18F7
:10186000BA689A607B6A1422BA1811001800084BF3
:10187000984703003B623B6A002B01D03B6A01E0C2
:10188000BB1D1B881800BD460AB080BD0180FFFF4C
:101890002D51000080B58AB000AFF860B960BB1D63
:1018A0001A80FB68143B7B627B6A9A8B1423FB18BB
:1018B0001A80BB1D1A881423FB185A601423FB18C6
:1018C0000C4A5A801423FB18BA689A607B6A142267
:1018D000BA1811001800084B984703003B623B6A96
:1018E000002B01D03B6A01E0BB1D1B881800BD46E0
:1018F0000AB080BD0080FFFF2D51000080B584B08C
:1019000000AF786039607B685A1E9341DBB20E49A4
:101910005E2218000D4B98477B683A68110018004A
:101920000B4B98470300FB60FB68002B01D0FB6862
:1019300006E07B68074A9A617B68074A5A61002380
:101940001800BD4604B080BDF8C20000D52C0000D0
:10195000494F00002D1800009518000080B584B094
:1019600000AFF860B9607A60FB68002B04D0BB68F8
:10197000002B01D0012300E000231A1C0123134097
:10198000DBB20B49332218000A4B9847FB68BA6850
:1019900011001800084B9847FB68084A1A60FB685A
:1019A000074A5A6000231800BD4604B080BDC046F7
:1019B00014C30000D52C0000CD620000551A0000B1
:1019C0007B1A000080B582B000AF78607B685A1E39
:1019D0009341DBB20B494A2218000B4B98477B68B6
:1019E00018000A4B9847031E02D011235B4204E003
:1019F0007B681800064B984700231800BD4602B0CC
:101A000080BDC04614C30000D52C00003565000021
:101A1000C164000080B584B000AFF860B9607A603E
:101A2000FB685A1E9341DBB207497C221800074B22
:101A30009847FB687A68B9681800054B98470023F7
:101A40001800BD4604B080BD14C30000D52C0000B2
:101A5000E164000080B584B000AF78607B68FB6013
:101A6000FB685B69002B04D0FB685B69FA681000B7
:101A70009847C046BD4604B080BD80B584B000AF75
:101A800078607B68FB60FB689B69002B04D0FB6877
:101A90009B69FA6810009847C046BD4604B080BDF7
:101AA00080B584B000AF786039600023FB607B684C
:101AB000002B04D03B68002B01D0012300E0002361
:101AC0001A1C01231340DBB2114940221800114BAC
:101AD00098477B683A685A607B6804333A6811001B
:101AE00018000D4B98470300FB60FB68002B01DAE0
:101AF000FB6809E07B68094A9A827B68084A1A6198
:101B00007B68084ADA6000231800BD4604B080BD37
:101B10002CC30000D52C0000195600000080FFFFE8
:101B2000291B00008D1B000080B588B000AFF86055
:101B3000B960BB1D1A80FB685A1E9341DBB2104985
:101B4000872218000F4B9847FB680C3BFB61102362
:101B5000FB18BA685A601023FB1800221A60BB1DDC
:101B60001A881023FB189A601023FA18FB691100D9
:101B70001800054B984703001800BD4608B080BD0B
:101B80002CC30000D52C0000F11B000080B588B0EC
:101B900000AFF860B960BB1D1A80FB685A1E934104
:101BA000DBB21049A32218000F4B9847FB680C3B8F
:101BB000FB611023FB1800225A601023FB18BA683F
:101BC0001A60BB1D1A881023FB189A601023FA189C
:101BD000FB6911001800054B984703001800BD462B
:101BE00008B080BD2CC30000D52C0000F11B000004
:101BF00080B586B000AF786039607B68002B04D078
:101C00003B68002B01D0012300E000231A1C0123B4
:101C10001340DBB21049B3221800104B98473B68C1
:101C20001A680C23FB181A603B685A680C23FB18CF
:101C30005A603B689A680C23FB189A607B680433EF
:101C40000C22BA1811001800054B98470300180021
:101C5000BD4606B080BDC0462CC30000D52C000098
:101C6000E558000080B582B000AF78607B681B68E3
:101C70001800BD4602B080BD80B582B000AF78606C
:101C80007B68002B02D07B681B6800E000231800F3
:101C9000BD4602B080BD000080B584B000AFF860E2
:101CA000B9607A60FB68002B04D0BB68002B01D0C0
:101CB000012300E000231A1C01231340DBB20B496F
:101CC0003B2218000A4B9847FB68BA6811001800BD
:101CD000084B9847FB6800221A61FB68064A1A60A5
:101CE00000231800BD4604B080BDC04648C30000B4
:101CF000D52C0000FD3E00000D1F000080B582B015
:101D000000AF78607B685A1E9341DBB20B495322C7
:101D100018000B4B98477B6818000A4B9847031E26
:101D200002D011235B4204E07B681800064B984701
:101D300000231800BD4602B080BDC04648C3000065
:101D4000D52C00002D400000B93F000080B584B0C4
:101D500000AF786039607B68002B04D03B68002BB3
:101D600001D0012300E000231A1C01231340DBB241
:101D70002E497A2218002E4B98477B681B7EDBB2D7
:101D800001221343DAB27B681A767B6814333A680F
:101D900011001800274B9847031E10D07B681B7E4C
:101DA000DBB201229343DAB27B681A761F4B7F22A3
:101DB000190000201E4B984712235B4232E07B68DB
:101DC0001A693B685A607B68143318007B681A698B
:101DD0003B681900184B98477B681B7EDBB20122D9
:101DE0009343DAB27B681A767B681B7EDBB21A00FB
:101DF0000223134015D00C23FB1818000F4B9847F3
:101E00007B681B7EDBB202229343DAB27B681A76D0
:101E10007B6818000A4B98470C23FB181800094BE5
:101E2000984700231800BD4604B080BD48C3000099
:101E3000D52C0000012D0000491E000015160000E1
:101E40004D4000003716000080B588B000AFF86044
:101E5000B9607A600023BB61FB681800274B984784
:101E600003003B613B69002B06D1BA68FB68110097
:101E70001800234B98473DE03B69FB6124E0FB6978
:101E80005A687B689A4208D8FB699A68FB69596866
:101E90007B68CB1AD3187B6109E0FB699A68FB6900
:101EA0005B68D2187B685B42D31801337B61BB68E7
:101EB0009A687B699A420BD9FB69BB61FB69180080
:101EC000104B98470300FB61FB69002BD7D100E062
:101ED000C046FA693B699A4206D1BA68FB681100AC
:101EE0001800074B984705E0BA68BB691100180055
:101EF000054B9847BD4608B080BDC046651C000034
:101F0000352D0000791C00008D2D000080B586B0B5
:101F100000AF78607B683B613B6914331800294B44
:101F2000984703007B613B691B695A1C3B691A6136
:101F30003B691B69FB603B691B7EDBB21A00012316
:101F4000134006D13B691B7EDBB21A00022313400B
:101F500029D03B691B7EDBB202221343DAB23B6914
:101F60001A762BE07B69BB603B6914331800164B73
:101F70009847BB681B7C012B09D1BB68FA685A6083
:101F80003B691433FA68B9681800104B98473B69ED
:101F9000143318000B4B984703007B61BB68DB6868
:101FA000BA68100098477B69002B07D07B695B6893
:101FB000FA68D21A7B699B689A42D3D2BD4606B0B2
:101FC00080BDC046651C00002D2E0000491E00008B
:101FD00080B586B000AFF860B9607A60FB68002B0E
:101FE00004D0BB68002B01D0012300E000231A1CA1
:101FF00001231340DBB20F49342218000E4B9847DF
:10200000FB680833BA68110018000C4B98470300AE
:102010007B617B69002B01D07B6906E0FB68084A85
:102020005A60FB68074A1A6000231800BD4606B0D4
:1020300080BDC04660C30000D52C0000854800006C
:10204000A1210000CD20000080B582B000AF7860F3
:102050007B685A1E9341DBB2074953221800074B95
:1020600098477B6808331800054B984700231800F1
:10207000BD4602B080BDC04660C30000D52C000044
:10208000C548000080B582B000AF786039607B68D9
:10209000002B04D03B68002B01D0012300E000237B
:1020A0001A1C01231340DBB2064969221800064BB3
:1020B00098477A683B681A6000231800BD4602B052
:1020C00080BDC04660C30000D52C000080B586B03E
:1020D00000AFF860B960BB1D1A8000237B61FB680C
:1020E0003B61FB68002B08D0BB68002B05D0BB1DF3
:1020F0001B88002B01D0012300E000231A1C0123C0
:102100001340DBB22149F1221800214B9847C04609
:102110003B69083318001F4B984703001A0001233E
:102120005340DBB2002BF3D13B6908331800BA6887
:102130007B69D3181B781900174B9847C0463B6939
:1021400008331800134B984703001A00012353402B
:10215000DBB2002BF3D17B6901337B61BB1D1B8894
:102160007A699A42E0D3C0463B69083318000B4BAA
:10217000984703001A0001235340DBB2002BF3D130
:102180007B691800BD4606B080BDC04660C3000034
:10219000D52C000035490000E548000055490000F5
:1021A00090B587B000AFF860B960BB1D1A800023FE
:1021B0007B61FB683B61FB68002B08D0BB68002B90
:1021C00005D0BB1D1B88002B01D0012300E000239C
:1021D0001A1C01231340D8B286235A00134B19004E
:1021E000134B9847C0463B6908331800114B98477A
:1021F00003001A0001235340DBB2002BF3D1BA686D
:102200007B69D4183B69083318000B4B98470300CF
:1022100023707B6901337B61BB1D1B887A699A42FD
:10222000E0D37B691800BD4607B090BD60C30000D5
:10223000D52C0000754900001149000080B584B01C
:1022400000AF0200FB1D1A700F23FB1800221A704A
:1022500038E00F23FB181B785BB2204A5B01D318D0
:1022600001331B78FA1D12789A4204D10F23FB1810
:102270001B785BB22EE00F23FB1800229A56174BF7
:102280005201D35C002B13D1FB1D1B780F2213408E
:102290000F22BA18127852B2104952018A1801322C
:1022A0001278934204D10F23FB181B785BB211E024
:1022B0000F23FB181B785BB2DBB20133DAB20F23BA
:1022C000FB181A700F23FB181B785BB2032BC0DDC1
:1022D00001235B421800BD4604B080BD9001002080
:1022E00080B588B000AFBA607B600F23FB18021C7A
:1022F0001A700E23FB180A1C1A701423FB18BA68F4
:102300001A601423FB187A685A600E23FB181B7896
:10231000002B07D00F23FB181B7880225242134357
:10232000DBB205E00F23FB181B780F221340DBB252
:102330001422BA1813721423FB182822BA18127820
:102340005A721423FB181800034B98470300180017
:10235000BD4608B080BDC0468D91000080B584B0F8
:1023600000AFF860B9607A6000231800BD4604B081
:1023700080BD000090B587B000AF0200FB1D1A7051
:102380001723FC18FB1D1B781800334B98470300DC
:1023900023701723FB181B785BB25A012F4BD318FD
:1023A0003B613B690C33FB60FA68FB1D1B78110035
:1023B00018002B4B984702000B23FB181A700B23B5
:1023C000FB181B78082B10D0FB1D1B78012118006F
:1023D000244B9847FB1D1B78802252421343DBB2EB
:1023E000012118001F4B984733E0FB1D1B7800218B
:1023F00018001C4B9847FB1D1B7880225242134348
:10240000DBB200211800174B98473B6901229A70F4
:102410003B695B69F968FA1D127810009847030060
:102420001A0001235340DBB2002B12D03B69052276
:102430009A70FB1D1B78012118000A4B9847FB1D61
:102440001B78802252421343DBB201211800054B56
:102450009847BD4607B090BD3D2200009001002086
:10246000BD900000D98E000090B585B000AF02008D
:102470003960FB1D1A700F23FC18FB1D1B78180018
:102480000E4B9847030023700F23FB181B785BB299
:102490005A010B4BD318BB60BB689B78032B08D148
:1024A000BB689B693968FA1D1278100098470300D1
:1024B00000E000231800BD4605B090BD3D2200009D
:1024C0009001002090B587B002AF78600F23FB1811
:1024D0007A6892781A707B681B7B1A0080231A40F6
:1024E0000E23FB18511E8A411A700F23FB181B780C
:1024F000032B42D17B68DB697A6850787A680C32AA
:102500000D217C1801219847030023700D23FB182F
:102510001B78002B18D07B6805229A707B680222FA
:10252000DA700E23FB181B78002B02D07B685B78D7
:1025300005E07B685B78802252421343DBB20121C5
:102540001800154B984723E07B6804229A707B683B
:1025500058780E23FB181B785A1E9341DBB20122D8
:102560005340DBB21A1C01231340D9B2012300935C
:1025700000230022094CA0470AE07B68DB697A68E7
:1025800050787A680C32002198477B6802229A7052
:10259000C046BD4605B090BDD98E0000E1220000C6
:1025A00090B587B000AFB9607A600F23FB18021CAA
:1025B0001A701723FC180F23FB181B781800334BD5
:1025C0009847030023701723FB181B785BB25A014E
:1025D0002F4BD3183B61BB68002B0FD13B69002206
:1025E000DA703B691B78002B04D13B691800294B3A
:1025F000984748E03B6901229A703AE0BB68012B9A
:1026000015D13B690222DA703B691B78002B0AD195
:102610003B6902229A700F23FB181B7800211800D7
:102620001D4B984725E03B6905229A7021E0BB6865
:10263000022B0ED13B690422DA703B691B78002B18
:1026400003D13B6902229A701DE03B6901229A7016
:102650000FE0BB68032B06D13B6900229A703B69EF
:102660000522DA7005E03B6906229A703B69062272
:10267000DA703B69DB693A69D1787C680F22BA1855
:10268000107822009847BD4607B090BD3D2200005B
:1026900090010020C5240000D98E000080B582B0D2
:1026A00000AF284B984703003B603B68002B01DAE2
:1026B0003B6842E0244B802200211800234B9847BE
:1026C000FB1D00221A7024E0FB1D1B781E4A5B01D3
:1026D000D3180133FF221A70FB1D1B781A4A5B01C5
:1026E000D31814331A4A1A60FB1D1B78164A5B0173
:1026F000D3181833164A1A60FB1D1B78124A5B0167
:10270000D3181C33124A1A60FB1D1A78FB1D0132C4
:102710001A70FB1D1B78032BD6D90E4B1900002015
:102720000D4B98470D4B190001200B4B98470C4B54
:1027300019000220084B984700231800BD4602B03C
:1027400080BDC0468D8500009001002057BA000072
:102750005D23000075230000099400006924000037
:10276000A125000080B582B000AF02003960FB1DDA
:102770001A703A68FB1D1B7811001800024B98472D
:10278000C046BD4602B080BDBD93000080B500AF1D
:10279000024B984703001800BD4680BD9986000093
:1027A00080B500AF024B9847C046BD4680BDC046CD
:1027B0001D87000080B582B000AF0200FB1D1A70BB
:1027C000FB1D1B781800034B9847C046BD4602B05E
:1027D00080BDC0463987000080B582B000AF0200DE
:1027E000FB1D1A70FB1D1B789BB21A0000210020F4
:1027F000034B984703001800BD4602B080BDC04699
:102800000528000090B587B000AF04000800110053
:10281000FB1D221C1A70BB1D021C1A703B1D0A1CDA
:102820001A801723FC18FB1D1B781800254B9847AE
:10283000030023701723FB181B785BB25A01224B4D
:10284000D3183B611723FB181B787F2B02D8142366
:102850005B4232E01723FC18FF201A4B9847030015
:1028600023701723FB181B787F2B02D915235B429B
:1028700023E01723FB181B785BB25A01124BD318C5
:102880003B613B1D1A88BB1D1978FB1D1B78180086
:102890000E4B98470300FB60FB68002B01DAFB68D6
:1028A0000BE03B69FA1D12785A70BB1D1B7803229E
:1028B0001340DAB23B691A7000231800BD4607B016
:1028C00090BDC0463D22000090010020018800001C
:1028D00090B585B000AF0200FB1D1A700F23FC18E5
:1028E000FB1D1B7818000F4B9847030023700F2324
:1028F000FB181B785BB25A010B4BD318BB600F233C
:10290000FB181B787F2B08D8FB1D1B781800074B82
:102910009847BB68FF225A7000E0C046BD4605B02C
:1029200090BDC0463D220000900100207D8900003E
:1029300090B587B000AF0200FB1D1A701723FC187A
:10294000FB1D1B781800174B9847030023701723B3
:10295000FB181B785BB25A01134BD3183B6117234A
:10296000FB181B787F2B02D912235B4216E03B69D0
:102970001B78002B01D1022200E001223B699A70F2
:10298000FB1D1B781800094B98470300FB60FB6890
:10299000002B02DA3B6900229A70FB681800BD46E2
:1029A00007B090BD3D220000900100207D8A00000C
:1029B000B0B58CB002AF78607B681B7A1F22BC1860
:1029C00018005E4B9847030023701F23FB181B78E9
:1029D0005BB25A015A4BD318BB617B681B7A1A0051
:1029E00080231A402723FB18511E8A411A707B68E6
:1029F0005A7A2623FB18511E8A411A707B685B683D
:102A00003B621F23FB181B787F2B02D912235B42EA
:102A100090E00823FB1818004A4B9847BB699A7846
:102A20000F23FB181A700F23FB181B78DBB2012B46
:102A30000CD1BB6903229A700823FB181800424B83
:102A40009847BB691B78002B61D119E00823FB185C
:102A500018003D4B98470F23FB181B78DBB2052B62
:102A600004D0062B04D0002B05D007E0022361E040
:102A700010235B425EE013235B425BE0012359E0DD
:102A8000BB699B7C99B2BB69DB7C9BB21B029AB28F
:102A90001623FB188A181A801623FB181B88002B94
:102AA0000DD12723FB1801221A7000233B62262335
:102AB000FB1801221A70BB6904229A7027E0BB69D7
:102AC0001B7B1A0080231A402723FB18511E8A41C2
:102AD0001A701623FB181A883B6A9A4203D21623EF
:102AE000FB181B883B622723FB181B78002B0AD09E
:102AF0001623FB181A882623FB18396A9142924143
:102B000052421A7003E02623FB1800221A707B68D9
:102B1000187A7B681C682623FB181B783D6A2722DD
:102B2000BA18117800932B002200084CA04703002C
:102B30003B613B691800BD460AB0B0BD3D220000B4
:102B4000900100201516000037160000E122000059
:102B500090B587B000AF0200FB1D1A701723FC1858
:102B6000FB1D1B7818001D4B98470300237017238B
:102B7000FB181B785BB25A01194BD3183B61172322
:102B8000FB181B787F2B02D912235B4222E0FB1D2E
:102B90001B7802211800134B9847031E19D0FB1D08
:102BA0001B78002118000F4B98470300FB60FB685F
:102BB000002B01DAFB680DE03B6901229A703B694A
:102BC0000322DA703B69DB69FA1D107800220321C9
:102BD000984700231800BD4607B090BD3D22000075
:102BE00090010020D98E000080B582B000AF0200B5
:102BF000FB1D1A70BB1D0A1C1A70BB1D1B78002B15
:102C000006D1FB1D1B7818000D4B9847030012E0FE
:102C1000BB1D1B78012B07D1FB1D1B780121180060
:102C2000084B9847030006E0FB1D1B7802211800A3
:102C3000044B984703001800BD4602B080BDC04653
:102C4000512B0000D98E000090B587B000AF3A60DC
:102C5000FB1D021C1A70BB1D0A1C1A701723FC18DE
:102C6000FB1D1B781800184B98470300237017238F
:102C7000FB181B785BB25A01144BD3183B613B68BD
:102C8000002B01D03B6800E0114BFB601723FB18C1
:102C90001B787F2B14D8BB1D1B78012B08D0022B6F
:102CA0000AD0002B00D00CE03B69FA685A6108E0BA
:102CB0003B69FA689A6104E03B69FA68DA6100E00E
:102CC000C046BD4607B090BD3D22000090010020E7
:102CD0005D23000080B584B000AFB9607A600F2337
:102CE000FB18021C1A700F23FB181B78012253409B
:102CF000DBB2002B00D000BEC046BD4604B080BD94
:102D000080B584B000AF786039607B681B68FB6079
:102D100008E0FA683B689A4201D1012306E0FB68AB
:102D20001B68FB60FB68002BF3D100231800BD4635
:102D300004B080BD80B582B000AF786039603A6879
:102D40007B68110018000E4B984703005A1E9341F0
:102D5000DBB201225340DBB21A1C01231340DBB269
:102D6000084939221800084B98477B681A683B6865
:102D70001A607B683A681A60C046BD4602B080BDE2
:102D8000012D00007CC30000D52C000080B582B06E
:102D900000AF786039607B681A683B681A607B68AE
:102DA0003A681A60C046BD4602B080BD80B584B0A6
:102DB00000AF786039607B681B68FB603A687B68AD
:102DC00011001800164B984703005A1E9341DBB2BE
:102DD00001225340DBB21A1C01231340DBB211491C
:102DE0004F221800104B98477B681B68002B09D1B5
:102DF0007B683A681A603B6800221A600CE0FB6846
:102E00001B68FB60FB681B68002BF8D1FB683A6805
:102E10001A603B6800221A60BD4604B080BDC046FF
:102E2000012D00007CC30000D52C000080B584B0CB
:102E300000AF78607B681B68002B09D07B681B683B
:102E4000FB607B681B681A687B681A60FB6800E09F
:102E500000231800BD4604B080BD000080B584B0DA
:102E600000AF78600A4B1B68002B02D1084B094A5F
:102E70001A60074B1B68FB60054B1A687B68D21809
:102E8000034B1A60FB681800BD4604B080BDC04605
:102E9000100200207026002080B582B000AF78605C
:102EA000C0467B685B7E1B06DB0FDBB2002BF8D1D4
:102EB000C046BD4602B080BD80B584B000AF78602A
:102EC0000A00FB1C1A700F23FB187A6812781A701C
:102ED0000F23FB180F22BA18F91C127809780A4040
:102EE0001A700F23FB181B781800BD4604B080BD74
:102EF00080B582B000AF78600A00FB1C1A707B6856
:102F0000FA1C12781A70C046BD4602B080BD80B56A
:102F100082B000AF78600A00FB1C1A707B68FA1C54
:102F200012785A70C046BD4602B080BD80B582B0EE
:102F300000AF78600A00FB1C1A707B68FA1C1278DC
:102F40009A70C046BD4602B080BD80B582B000AF69
:102F500078600A00FB1C1A707B68FA1C1278DA7021
:102F6000C046BD4602B080BD80B582B000AF78607B
:102F70000A00BB1C1A807B68BA1C12889A807B6886
:102F80001800034B9847C046BD4602B080BDC046FE
:102F9000992E000080B582B000AF78600A00FB1C5B
:102FA0001A707B68FA1C12781A727B681800034B3F
:102FB0009847C046BD4602B080BDC046992E00006D
:102FC00080B582B000AF786039607B683A681A617A
:102FD0007B681800024B9847C046BD4602B080BDD2
:102FE000992E000080B582B000AF78600A00FB1C0B
:102FF0001A707B68FA1C12781A75C046BD4602B07A
:1030000080BD000080B582B000AF78600A00BB1CB4
:103010001A807B68BA1C12889A837B681800034B5D
:103020009847C046BD4602B080BDC046992E0000FC
:1030300080B582B000AF78600A00BB1C1A807B6844
:10304000BA1C12881A847B681800034B9847C04644
:10305000BD4602B080BDC046992E000080B582B04A
:1030600000AF78600A00BB1C1A807B68BA1C12880B
:103070009A84C046BD4602B080BD80B582B000AF24
:1030800078600A00BB1C1A807B68BA1C1288DA843C
:10309000C046BD4602B080BD80B582B000AF78604A
:1030A0000A00BB1C1A807B68BA1C12881A85C046AD
:1030B000BD4602B080BD80B582B000AF78600A0026
:1030C000FB1C1A707B68FA1C2A2112785A54C046DD
:1030D000BD4602B080BD80B582B000AF78600023ED
:1030E0001800BD4602B080BD90B585B000AF7860D5
:1030F0007B680E22BC181800184B984703002370F9
:103100000F23FB1800221A7018E00F23FB181A78FF
:1031100013491300DB009B1A9B005B5C0E22BA185C
:1031200012789A4203D10F23FB181B7812E00F2369
:10313000FB181A780F23FB1801321A700F23FB18A3
:103140001B78002BE1D0074B7F2219000020064B93
:10315000984700231800BD4605B090BDD730000049
:10316000000000209CC30000D52C0000F0B585B005
:1031700000AF78600A00FB1C1A707B68884A94468E
:1031800063445A425341DBB2864994221800864B6D
:103190009847864B1B68DB089BB21B029AB2E02360
:1031A000DB00134099B2824B5C681B686201DD0E44
:1031B0001543E60EABB2FF2213409AB20E23FB1862
:1031C0000A431A807B6818007A4B98477B68022173
:1031D0001800794B9847031E08D07B68002118001F
:1031E000764B98477B681800724B98477B680121A3
:1031F0001800724B98477B6818006E4B98470E2357
:10320000FB181A887B68110018006D4B9847FB1C4F
:103210001A786C491300DB009B1A9B00CB18023311
:103220001A787B6811001800674B9847FB1C1A78C6
:1032300064491300DB009B1A9B00CB1803331A78F8
:103240007B6811001800614B9847FB1C1A785D4998
:103250001300DB009B1A9B00CB1804331A787B68A1
:10326000110018005A4B9847FB1C1A785549130057
:10327000DB009B1A9B00CB1810331A787B68110077
:103280001800544B9847FB1C1A784E491300DB007A
:103290009B1A9B00CB1816331A887B681100180004
:1032A0004D4B9847FB1C1A7846491300DB009B1ACC
:1032B0009B00CB1818331A887B6811001800474B05
:1032C0009847FB1C1A783F491300DB009B1A9B00B0
:1032D000CB181A331A787B6811001800404B9847B6
:1032E000FB1C1A7837491300DB009B1A9B00CB1894
:1032F00006331A887B68110018003A4B9847FB1C6C
:103300001A7830491300DB009B1A9B00CB180C3352
:103310001A687B6811001800334B9847FB1C1A7819
:1033200028491300DB009B1A9B00CB1808331A783E
:103330007B68110018002D4B9847FB1C1A78214917
:103340001300DB009B1A9B00CB1812331A887B6892
:1033500011001800264B9847FB1C1A7819491300D6
:10336000DB009B1A9B00CB1814331A887B68110072
:103370001800204B9847FB1C1A7812491300DB00F9
:103380009B1A9B00CB1801331A787B681100180038
:103390000A4B984700231800BD4605B0F0BDC04653
:1033A00000C0FFBD9CC30000D52C0000246080003D
:1033B00020608000992E0000B92E0000F12E000040
:1033C00099300000000000200F2F00002D2F00007A
:1033D0004B2F0000E52F00005D3000007B30000027
:1033E000B7300000692F0000C12F0000952F0000AA
:1033F000053000003130000080B582B000AF786049
:1034000039607B685A1E9341DBB20C49C522180013
:103410000B4B98477B683A681A603B681800094B69
:10342000984703001A003B6811001800064B9847A4
:1034300003001800BD4602B080BDC0469CC300001A
:10344000D52C0000E93000006D31000090B583B04C
:1034500000AF39601100BB1D021C1A807B1D0A1CC5
:103460001A707B1D1B78043B042B59D89A00344BEF
:10347000D3181B689F46BB1D1C883A68314B3249E4
:1034800010009847030063435A1E2E4B0A21100078
:103490009847030001334EE0BB1D1C883A68294B56
:1034A0002A4910009847030063435A1E254B6421A4
:1034B00010009847030001333DE0BB1D1C883868AD
:1034C000204BFA229100984703006343581E1D4B7E
:1034D000FA2291009847030001332CE0BB1D1C88A1
:1034E0003A68184B642110009847030063435A1E42
:1034F000144B164910009847030001331BE0BB1D15
:103500001C883A680F4B0A21100098470300634358
:103510005A1E0C4B0C4910009847030001330AE077
:10352000BB1D1B883A6853435A1E064B08491000BE
:103530009847030001331800BD4603B090BDC04654
:10354000D8C30000C9B80000A08601001027000001
:1035500040420F0080B582B000AF0200BB1D1A8050
:103560000549BB1D1B8807221800044B9847030020
:103570001800BD4602B080BD00127A004D34000034
:1035800090B583B000AF39601100BB1D021C1A80DA
:103590007B1D0A1C1A707B1D1B78043B042B4BD827
:1035A0009A002D4BD3181B689F46BB1D1C883A6898
:1035B0002A4B2B491000984703006343642253436E
:1035C00045E0BB1D1C883A68244B264910009847EB
:1035D000030063431A0013009B009B185B0036E056
:1035E000BB1D1C8838681D4BFA22910098470300C8
:1035F00063432CE0BB1D1C883A68184B6421100003
:103600009847030063435A1E144B0A211000984741
:10361000030001331BE0BB1D1C883A680F4B0A21D5
:1036200010009847030063435A1E0C4B642110009E
:103630009847030001330AE0BB1D1B883A685343D7
:10364000581E064BFA2291009847030001331800D8
:10365000BD4603B090BDC046ECC30000C9B8000031
:10366000A08601001027000080B582B000AF0200E4
:10367000BB1D1A800549BB1D1B8807221800044B7F
:10368000984703001800BD4602B080BD00127A00C2
:103690008135000080B582B000AF786039607B680A
:1036A0005A683B685B001E210B401A437B685A60D6
:1036B000C046BD4602B080BD80B500AF084B0021BA
:1036C0001800084B9847084B9847084B9847084BF9
:1036D0009847FF20074B9847C046BD4680BDC0466F
:1036E0000040004195360000F13C0000655C0000A0
:1036F000255D0000D13B000080B582B000AF020024
:10370000FB1D1A70FB1D1B787F2B09D8064BFA1D79
:10371000127811001F220A40012191400A001A600C
:10372000C046BD4602B080BD00E100E080B582B079
:1037300000AF0200FB1D1A70FB1D1B787F2B0ED8FB
:103740000949FB1D1B781A001F23134001229A40D0
:10375000130080228B50BFF34F8FBFF36F8FC04693
:10376000BD4602B080BDC04600E100E080B582B039
:1037700000AF0200FB1D1A70FB1D1B787F2B0AD8BF
:103780000749FB1D1B781A001F23134001229A4092
:10379000C0235B00CA50C046BD4602B080BDC046D3
:1037A00000E100E080B582B000AF7860C0467B6881
:1037B0005B781B06DB0FDBB2002BF8D1C046BD46A1
:1037C00002B080BD80B582B000AF78607B681B69B5
:1037D0001800BD4602B080BD80B582B000AF7860F1
:1037E00039607B683A681A61C046BD4602B080BD48
:1037F00080B582B000AF78607B68DB681800BD469A
:1038000002B080BD80B582B000AF78607B681B7865
:10381000DBB202221343DAB27B681A707B681800AD
:10382000024B9847C046BD4602B080BDA537000098
:1038300080B584B000AF78600A00FB1C1A707B680A
:1038400018000B4B98470F23FB187A6812781A70F0
:103850000F23FB180F22BA18F91C127809780A40B6
:103860001A700F23FB181B781800BD4604B080BDEA
:10387000A537000080B582B000AF78600A00FB1C5D
:103880001A707B68FA1C12781A707B681800034B58
:103890009847C046BD4602B080BDC046A53700006F
:1038A00080B582B000AF78600A00FB1C1A707B689C
:1038B000FA1C12789A70C046BD4602B080BD80B531
:1038C00082B000AF786039607B683A685A60C04661
:1038D000BD4602B080BD80B582B000AF786039606F
:1038E0007B683A685A61C046BD4602B080BD80B56B
:1038F00084B000AFF8607A600B23FB180A1C1A70C2
:103900000B23FB181A78FB68063292007968D150B5
:10391000C046BD4604B080BD80B582B000AF7860BF
:10392000264B1800264B9847244B02211800254BA4
:103930009847031E08D0214B00211800224B9847BE
:103940001E4B18001E4B98471C4B012118001E4BA4
:1039500098471A4B18001A4B9847184B002118002B
:103960001A4B9847154B00211800194B9847134BD9
:1039700000211800174B9847104B00220021180017
:10398000154B98470D4B002201211800124B984708
:103990000A4B1800114B98470420114B98470420FC
:1039A000104B98470420104B9847104B7A681A60C8
:1039B00000231800BD4602B080BDC046001800407C
:1039C000A53700003138000075380000A13800002C
:1039D000BF380000D7380000EF380000053800007D
:1039E0002D3700006D370000F9360000140200206A
:1039F00090B585B000AF564B1800564B9847040061
:103A0000534B1800544B9847030023403B6001235D
:103A10005B42BB603B684E4A190010004F4B984711
:103A20004F4B1B685A1E9341DBB24E49D2221800FD
:103A30004D4B984784E03B6818004C4B9847030077
:103A4000DBB2013BDAB20F23FB181A7060E0FB1DFA
:103A500000221A70BB1D01221A7035E0BB1D1A78B6
:103A6000FB1D1B78D3185A107B1D1A707B1D1A780A
:103A70003F4BD200D35C1A000F23FB181B785BB2BC
:103A80009A4202D12223BB6024E07B1D1A78384B76
:103A9000D200D35C1A000F23FB181B785BB29A424A
:103AA00009DAFB1D7A1D127801321A70BB1DBA1D8E
:103AB00012781A7008E0BB1D7A1D1278013A1A704C
:103AC000FB1DFA1D12781A70BA1DFB1D12781B78A7
:103AD0009A42C3D2BB68013304D0214B1B68BA6839
:103AE000100098470F23FB181B785BB201229A4005
:103AF0001300DB433A6813403B603B6818001B4BE4
:103B000098470300DBB2013BDAB20F23FB181A70AF
:103B10000F23FB181B785BB2013398D10C4B1800B4
:103B20000C4B984704000A4B18000B4B98470300B6
:103B300023403B603B68064A19001000074B98473A
:103B40003B68002B00D076E7C046BD4605B090BD6F
:103B500000180040C5370000F1370000D9370000D9
:103B60001402002008C40000D52C0000E1B90000B8
:103B700000C4000080B582B000AF7860C0467B68AA
:103B80005B781B06DB0FDBB2002BF8D1C046BD46CD
:103B900002B080BD80B582B000AF786039607B68CC
:103BA0003A685A607B681800024B9847C046BD4689
:103BB00002B080BD753B000080B582B000AF786078
:103BC00039607B683A689A60C046BD4602B080BDE5
:103BD00080B582B000AF78607B68012213400DD0C1
:103BE00080235B00104A19001000104B9847832374
:103BF0005B020D4A190010000D4B98477B6880222C
:103C000013400CD00823FF33074A19001000074B5C
:103C10009847084A044B11001800054B9847C046C6
:103C2000BD4602B080BDC046000C0040B93B00005C
:103C3000953B00000707010080B582B000AF7860B7
:103C40000A00FB1C1A707B681B7ADAB2FB1C1B781B
:103C500007210B40DBB21343DAB27B681A72C0460D
:103C6000BD4602B080BD80B582B000AF78600A006A
:103C7000FB1C1A707B685B7ADAB2FB1C1B7807218D
:103C80000B40DBB21343DAB27B685A72C046BD46C2
:103C900002B080BD80B582B000AF78600A00FB1C26
:103CA0001A707B689B7ADAB2FB1C1B7807210B40E9
:103CB000DBB21343DAB27B689A72C046BD4602B0EB
:103CC00080BD80B582B000AF78600A00FB1C1A701E
:103CD0007B68DB7ADAB2FB1C1B7807210B40DBB276
:103CE0001343DAB27B68DA72C046BD4602B080BDCB
:103CF00080B500AF0B4B002118000B4B9847094BC8
:103D000000211800094B9847064B00211800084B6A
:103D10009847044B00211800064B9847C046BD4603
:103D200080BDC04600040040393C0000673C0000F4
:103D3000953C0000C33C000080B582B000AF02009B
:103D4000FB1D1A70FB1D1B787F2B09D8064BFA1D33
:103D5000127811001F220A40012191400A001A60C6
:103D6000C046BD4602B080BD00E100E080B582B033
:103D700000AF7860C0467B689B7A1B06DB0FDBB226
:103D8000002BF8D1C046BD4602B080BD80B582B0E0
:103D900000AF78607B6801221A72C046BD4602B04F
:103DA00080BD80B582B000AF78607B681B7ADBB2E3
:103DB0001800BD4602B080BD80B582B000AF78600B
:103DC0007B680122DA71C046BD4602B080BD0000AA
:103DD00080B582B000AF78607B681B889BB20222FE
:103DE00013439AB27B681A807B681800024B98478D
:103DF000C046BD4602B080BD6D3D000080B584B0B8
:103E000000AF78607B6818000D4B98470E23FB18B5
:103E10007A6812881A800E23FB181B885B089AB2F6
:103E20000E23FB1801210A401A800E23FB181B8861
:103E30005A1E9341DBB21800BD4604B080BDC04697
:103E40006D3D000080B582B000AF78600A00BB1CF9
:103E50001A807B68BA1C12881A807B681800034B92
:103E60009847C046BD4602B080BDC0466D3D0000CB
:103E700080B584B000AF786039607B681B69FB60F7
:103E80000023FB60FA683B681343FB607B68FA68B9
:103E90001A617B681800034B9847C046BD4604B0C2
:103EA00080BDC0466D3D000080B586B000AFF860B3
:103EB0007A600B23FB180A1C1A700B23FB181A7864
:103EC000FB6806329200D3587B6100237B617A69DC
:103ED0007B6813437B610B23FB181A78FB6806325F
:103EE00092007969D150FB681800034B9847C0468F
:103EF000BD4606B080BDC0466D3D000080B584B0B3
:103F000000AF786039607B685A1E9341DBB2234969
:103F100033221800224B98477B683A68DA607B6846
:103F2000DB68012118001F4B98477B68DB6818008D
:103F30001D4B98470E23FB1800221A800E23FB18F6
:103F40000E22BA181288C02189000A431A800E2353
:103F5000FB180E22BA18128880210A431A807B6847
:103F6000DA680E23FB181B88190010000D4B9847C8
:103F70007B68D868FA239B001A0000210B4B9847F6
:103F80007B68DB6818000A4B98470A4B7A681A600E
:103F900000231800BD4604B080BDC04620C4000008
:103FA000D52C0000453E00006D3D0000A93E0000FC
:103FB000B93D00001802002080B582B000AF7860E3
:103FC0007B68002B05D07B68DB68002B01D00123C8
:103FD00000E000231A1C01231340DBB20D496A22C2
:103FE00018000D4B984703200C4B98477B68DB6803
:103FF000002118000A4B98477B68DB681800094BC2
:1040000098477B68DB681800074B9847C046BD4659
:1040100002B080BD20C40000D52C0000393D000056
:10402000713E00006D3D0000D13D000080B582B0C2
:1040300000AF78607B68DB681800034B984703008B
:104040001800BD4602B080BDFD3D000080B582B0C5
:1040500000AF7860C046BD4602B080BD80B584B078
:1040600000AF78607B68DB6818000F4B984703004F
:104070001A000E23FB181A800E23FB181B8801223E
:1040800013400DD07B681B68002B04D07B681B6835
:104090007A68100098477B68DB681800034B9847E4
:1040A000C046BD4604B080BDA33D00008D3D00006C
:1040B00080B500AF00231800BD4680BD80B500AFBD
:1040C000034B1B681800034B9847C046BD4680BD94
:1040D000180200205D40000080B582B000AF78601B
:1040E0003960C0467B68DB693A681340FAD1C04644
:1040F000BD4602B080BD80B582B000AF7860396047
:104100007B68DB693A6813405A1E9341DBB21800A2
:10411000BD4602B080BD80B582B000AF7860396026
:10412000C0467B68DB693A681340FAD1C046BD4699
:1041300002B080BD80B582B000AF786039607B6826
:10414000DB693A6813405A1E9341DBB21800BD4642
:1041500002B080BD80B582B000AF78603960C046E3
:104160007B68DB693A681340FAD1C046BD4602B0AD
:1041700080BD80B582B000AF786039607B68DB6954
:104180003A6813405A1E9341DBB21800BD4602B094
:1041900080BD80B582B000AF78607B6801221A765E
:1041A000C046BD4602B080BD80B582B000AF786029
:1041B0007B6802221A76C046BD4602B080BD80B53B
:1041C00082B000AF78607B681B7EDBB21800BD4612
:1041D00002B080BD80B584B000AF78600A00FB1CDF
:1041E0001A700F23FB187A68127E1A700F23FB18BF
:1041F0000F22BA18F91C127809780A401A700F2396
:10420000FB181B781800BD4604B080BD80B582B095
:1042100000AF78607B681B7EDBB21800BD4602B041
:1042200080BD80B582B000AF78600A00FB1C1A70B8
:104230007B68FA1C12781A76C046BD4602B080BD73
:1042400080B582B000AF78607B681B7EDBB21A005D
:10425000012313405A1E9341DBB21800BD4602B041
:1042600080BD80B582B000AF78607B681B7EDBB21A
:104270005B08012213405A1E9341DBB21800BD4671
:1042800002B080BD80B582B000AF78607B681B7ED5
:10429000DBB29B08012213405A1E9341DBB2180087
:1042A000BD4602B080BD000080B582B000AF78602E
:1042B0007B681B68022293431A007B681A607B6844
:1042C00003211800024B9847C046BD4602B080BD8E
:1042D000D940000080B584B000AF78607B681B686F
:1042E000FB60FB68DB0E01221340FB60FB685A1E7B
:1042F0009341DBB21800BD4604B080BD80B584B0E8
:1043000000AF786039607B6803211800064B98473E
:104310007B681B68FB60FB683A681340FB60FB68C6
:104320001800BD4604B080BDD940000080B582B001
:1043300000AF786039607B683A681A607B68032157
:104340001800034B9847C046BD4602B080BDC0462A
:10435000D940000080B584B000AF78607B6803214D
:104360001800094B98477B681B68FB60FB685B087B
:1043700001221340FB60FB685A1E9341DBB2180018
:10438000BD4604B080BDC0461741000080B582B074
:1043900000AF78607B681B68022293431A007B6839
:1043A0001A607B6803211800024B9847C046BD463F
:1043B00002B080BD1741000080B584B000AF7860C6
:1043C00039607B6803211800064B98477B681B689F
:1043D000FB60FB683A681340FB60FB681800BD4651
:1043E00004B080BD1741000080B582B000AF786096
:1043F00039607B683A681A607B6803211800034BB8
:104400009847C046BD4602B080BDC0461741000077
:1044100080B582B000AF78607B681B6802221A43C7
:104420007B681A607B6803211800034B9847C046DD
:10443000BD4602B080BDC0465541000080B582B087
:1044400000AF78607B681B68022293431A007B6888
:104450001A607B6803211800024B9847C046BD468E
:1044600002B080BD5541000080B584B000AF7860D7
:1044700039607B6803211800064B98477B681B68EE
:10448000FB60FB683A681340FB60FB681800BD46A0
:1044900004B080BD5541000080B582B000AF7860A7
:1044A00039607B683A681A607B6803211800034B07
:1044B0009847C046BD4602B080BDC0465541000089
:1044C00080B582B000AF78607B685B688022520064
:1044D0001A437B685A607B6804211800024B984796
:1044E000C046BD4602B080BDD940000080B582B054
:1044F00000AF78607B685B68064A1A407B685A6048
:104500007B6804211800044B9847C046BD4602B0A2
:1045100080BDC046FFFEFFFFD940000080B582B0DD
:1045200000AF78607B685B688022D2021A437B68A8
:104530005A607B6804211800024B9847C046BD466C
:1045400002B080BDD940000080B582B000AF786075
:104550007B685B68064A1A407B685A607B68042166
:104560001800044B9847C046BD4602B080BDC04607
:10457000FFFFFBFFD940000080B582B000AF78603C
:1045800039607B685A683B681904C0239B020B4062
:104590001A437B685A607B6804211800024B9847D5
:1045A000C046BD4602B080BDD940000080B582B093
:1045B00000AF786039607B683A685A607B68042194
:1045C0001800034B9847C046BD4602B080BDC046A8
:1045D000D940000080B582B000AF786039607B6858
:1045E0003A685A607B6807211800034B9847C04619
:1045F000BD4602B080BDC0461741000080B582B004
:1046000000AF786039607B683A685A607B68072140
:104610001800034B9847C046BD4602B080BDC04657
:104620005541000080B582B000AF786039607B688A
:104630003A68DA60C046BD4602B080BD80B582B03F
:1046400000AF78600A00FB1C1A707B68FA1C1278B5
:104650001A73C046BD4602B080BD80B582B000AFBF
:1046600078600A00BB1C1A807B68BA1C12889A8189
:10467000C046BD4602B080BD80B582B000AF786054
:104680000A00FB1C1A707B68FA1C12789A73C046E9
:10469000BD4602B080BD000080B584B000AF786038
:1046A0000A00FB1C1A707B685B6AFB60FB680B4AA4
:1046B0001340FB60FB1C1B789B031A00FB68134331
:1046C000FB607B68FA685A627B6804211800044B1F
:1046D0009847C046BD4604B080BDC046FFBFFFFF3F
:1046E000D940000080B582B000AF786039607B6847
:1046F0003A685A627B6804211800034B9847C04609
:10470000BD4602B080BDC046D940000080B582B031
:1047100000AF78607B6804211800044B98477B68E1
:104720005B6A1800BD4602B080BDC046D94000009B
:1047300080B582B000AF786039607B683A685A62B1
:10474000C046BD4602B080BD80B582B000AF786083
:104750000A00FB1C1A707B68FA1C282112785A5434
:104760007B6804211800034B9847C046BD4602B041
:1047700080BDC046D940000080B582B000AF7860EF
:104780007B6804211800054B98477B6828229B5CB6
:10479000DBB21800BD4602B080BDC046D940000063
:1047A00080B582B000AF786039607B683A689A6201
:1047B000C046BD4602B080BD80B582B000AF786013
:1047C0007B689B6A1800BD4602B080BD80B582B090
:1047D00000AF78600A00BB1C1A807B68BA1C128884
:1047E0001A85C046BD4602B080BD80B582B000AF1C
:1047F00078607B681B8D9BB21800BD4602B080BDFF
:1048000080B582B000AF78600A00FB1C1A707B682C
:10481000FA1C302112785A54C046BD4602B080BD01
:1048200080B582B000AF78600A00FB1C1A707B680C
:10483000FA1C302112785A54C046BD4602B080BDE1
:1048400080B582B000AF78600A00BB1C1A807B681C
:10485000BA1C12885A83C046BD4602B080BD000013
:1048600080B582B000AF78607B6804211800044BEB
:1048700098477B685B8B9BB21800BD4602B080BD39
:10488000D940000080B582B000AF786039607B68A5
:104890005A1E9341DBB20849B4221800074B9847CF
:1048A0007B683A681A603B681800054B984703001C
:1048B0001800BD4602B080BD38C40000D52C0000F1
:1048C0003D4A000080B582B000AF78607B681B680D
:1048D0001800034B9847C046BD4602B080BDC04695
:1048E0001144000080B582B000AF78600A00FB1C64
:1048F0001A707B681A68FB1C1B789BB219001000A9
:10490000024B9847C046BD4602B080BDCD4700006F
:1049100080B582B000AF78607B681B681800044BDC
:1049200098470300DBB21800BD4602B080BDC04608
:10493000EB47000080B582B000AF78607B681B68F1
:104940001800034B984703001800BD4602B080BD15
:104950004142000080B582B000AF78607B681B6880
:104960001800034B984703001800BD4602B080BDF5
:104970006342000080B582B000AF78607B681B683E
:104980001800034B984703001800BD4602B080BDD5
:104990008542000080B582B000AF78607B68044A31
:1049A000944663449B0ADBB21800BD4602B080BD4A
:1049B00000F8FFBD90B585B000AF78600E23FC18FD
:1049C0007B681800184B9847030023700F23FB18CF
:1049D00000221A7018E00F23FB181A7813491300ED
:1049E0009B009B189B005B5C0E22BA1812789A42BF
:1049F00003D10F23FB181B7812E00F23FB181A7842
:104A00000F23FB1801321A700F23FB181B78002BA1
:104A1000E1D0074A074B19000020074B98470023B5
:104A20001800BD4605B090BD954900001C0000204F
:104A30003A02000038C40000D52C000090B585B0C3
:104A400000AF78600F23FC187B6818006F4B984705
:104A5000030023707B68012118006D4B9847030009
:104A60001A0001235340DBB2002B25D00F23FB1883
:104A70001A78684913009B009B189B00CB180433DD
:104A80001B681C221340BB607B6802211800624B2C
:104A90009847031E08D07B681800604B98477B68D6
:104AA000022118005E4B9847BB6801221A437B68BD
:104AB000110018005B4B98477B6801211800584B88
:104AC00098470F23FB181A78524913009B009B1834
:104AD0009B00CB1804331A687B6811001800514BF7
:104AE00098470F23FB181A784A4913009B009B181C
:104AF0009B00CB1808331A687B68110018004A4BDA
:104B000098470F23FB181A78424913009B009B1803
:104B10009B00CB1804331A6880239B0113400ED1ED
:104B20000F23FB181A783B4913009B009B189B002E
:104B3000CB1804331A68C023DB01134030D00F2395
:104B4000FB181A78334913009B009B189B00CB1865
:104B50000C331B88DB04DB0C99B27A689389C90497
:104B6000C80C5B0B5B03191C031C0B4393810F23C5
:104B7000FB181A78274913009B009B189B00CB1841
:104B80000E331B781A1C07231340D9B27A68938915
:104B90004803DB04DB0C191C031C0B4393810FE05F
:104BA0000F23FB181A781B4913009B009B189B00CE
:104BB000CB180C331A887B68110018001B4B9847E0
:104BC0000F23FB181A78134913009B009B189B00B6
:104BD000CB180F331A787B6811001800144B9847D4
:104BE0000F23FB181A780B4913009B009B189B009E
:104BF000CB1810331A787B68110018000D4B9847BA
:104C000000231800BD4605B090BDC046B549000060
:104C1000734100001C000020694400003D44000076
:104C20005541000099440000FD4500005B4600002E
:104C3000794600002148000090B585B000AF78604B
:104C40000E23FC187B6818001A4B9847030023704A
:104C50000F23FB1800221A7019E00F23FB181A7893
:104C6000154913005B009B18DB005B5C0E22BA1831
:104C700012789A4204D10F23FB181B785BB214E020
:104C80000F23FB181A780F23FB1801321A700F2319
:104C9000FB181B78012BE0D9E6239A00074B19007B
:104CA0000020074B984701235B421800BD4605B022
:104CB00090BDC046954900003000002038C4000077
:104CC000D52C000080B582B000AF78607B680321EE
:104CD0001800034B9847C046BD4602B080BDC04691
:104CE0007945000090B587B000AFF860B9607A6090
:104CF000FB681800874B984703007B611223FC1860
:104D0000FB681800844B984703002380BB6801228E
:104D1000134000D1A3E01223FB181B88022213408A
:104D200020D0FB6818007D4B98477B685B889BB25E
:104D30008022520113439AB27B685A807B685B8859
:104D40009BB2774A13409AB27B685A801223FB18B1
:104D50001B880122134002D005235B42D6E00423C6
:104D60005B42D3E01223FB181B880422134021D09E
:104D70007B685B68002B08DD7B685B889BB28022C8
:104D8000520113439AB27B685A807B685B889BB25E
:104D90001BB2002B03DAFB681800624B98477B6854
:104DA0005B889BB25E4A13409AB27B685A800223AA
:104DB0005B42ABE07B685B889BB21A008023DB0020
:104DC000134021D07B681B881B125B001A0006234E
:104DD0001A401400FB681800534B984702008023C8
:104DE000DB0113402343F1221A43FB681100180032
:104DF0004E4B98477B685B889BB24D4A13409AB2F2
:104E00007B685A80002381E07B685B68002B12D1AD
:104E10007B685B889BB21BB2002B03DAFB6818002F
:104E2000404B98477B685B889BB23D4A13409AB2DF
:104E30007B685A8011E07B689B681A78FB681100D8
:104E400018003C4B98477B689B685A1C7B689A60AB
:104E50007B685B685A1E7B685A60002356E0BB681B
:104E60000222134051D07B685B68002B46D012238E
:104E7000FB181B880422134040D17B685B685A1ED4
:104E80007B685A607B685B68002B02D17B69002BD2
:104E900006D07B685B68012B06D17B69002B03D0B1
:104EA000FB681800244B98477B685B68002B15D182
:104EB0007B685B889BB21BB2002B07DAFB6818008B
:104EC0001E4B9847FB681800164B98477B685B8819
:104ED0009BB2134A13409AB27B685A807B689C68E5
:104EE000621C7B689A60FB681800154B98470300AA
:104EF0002370FB681800134B984706E0FB68180006
:104F0000104B984702235B4200E000231800BD4687
:104F100007B090BDD54200006148000093410000F9
:104F2000FFFEFFFFC54C00000D470000E5460000F6
:104F3000FFFBFFFF494700001D450000ED44000056
:104F400079470000A941000080B582B000AF7860C9
:104F500039607B685A1E9341DBB2094A094918003F
:104F6000094B98477B683A681A617B683A68110078
:104F70001800064B984703001800BD4602B080BDDC
:104F80000705000038C40000D52C0000695200005D
:104F900080B584B000AF78603960124BFB607B68ED
:104FA0001B69BB60BB6818000F4B984703001A00D1
:104FB0003B681A60FB685A1EFA60002B02D1052379
:104FC0005B420AE03B681B680122134004D13B6846
:104FD0001B6802221340E5D000231800BD4604B030
:104FE00080BDC046FFFF0000BF41000090B587B004
:104FF00000AF78607B681B697B617B683B617B6984
:1050000018003F4B98470300FB607B685A1E934192
:10501000DBB23C4A3C4918003C4B98473B695B6813
:10502000012B07D1FB68002B04D07B691800384B9B
:10503000984703E07B691800364B98473B691B880B
:105040001A008023DB00134028D03B695B889BB2A9
:105050001A000123134008D03B695B889BB2802271
:10506000D20013439AB23B695A803B691B885B00AC
:105070001A00294B1A4014007B691800274B9847E7
:1050800002008023DB0113402343802212021A43D3
:105090007B6911001800224B98471EE03B691B8872
:1050A0005B00FF2213403A69528892B2110001223C
:1050B0000A40511E8A41D2B213431C007B6918007A
:1050C000164B984702008023DB01134022001A434D
:1050D0007B6911001800124B98470823FA187B6867
:1050E000110018000F4B9847B9683A697B6918009E
:1050F0000D4B984703001800BD4607B090BDC04651
:10510000D54200009405000038C40000D52C0000F2
:105110001D45000049450000FE0700000D47000046
:10512000E5460000914F0000E54C000090B587B0C7
:1051300000AF786039607B681B693B617B685A1EF1
:105140009341DBB23E4A3F4918003F4B98477B688A
:105150001B695A1E9341D8B2B823DA00394B1900A3
:10516000394B98473B685A1E9341DBB2374A354961
:105170001800354B98477B685B889BB21A008023E8
:105180005B00134002D006235B4254E03B685B881F
:105190009BB28022520013439AB23B685A807B68CC
:1051A0003A6813CA13C33B691800294B98477B68B8
:1051B0001800284B984703007B617B69002B31D096
:1051C0007B685B889BB2244A13409AB27B685A8002
:1051D0007B6930E00C23FA187B68110018001F4B24
:1051E000984703007B617B69002B13D03B685B8889
:1051F0009BB21BB2002B03DA3B691800184B98478F
:105200007B685B889BB2144A13409AB27B685A80D1
:105210007B6910E0F9687A683B691800114B984780
:1052200003007B617B685B889BB21A0080235B0074
:105230001340CFD17B691800BD4607B090BDC04672
:10524000BF05000038C40000D52C0000C1050000D7
:10525000C1440000ED4F0000FFFEFFFF914F000032
:10526000C54C0000E54C000080B584B000AF78600C
:1052700039603B6818004F4B984703001A000F2312
:10528000FB181A703B68012118004B4B984703002C
:105290001A0001235340DBB2002B25D00F23FB184B
:1052A0001A78464913005B009B18DB00CB180433C7
:1052B0001B681C221340BB603B6802211800404B56
:1052C0009847031E08D03B6818003E4B98473B6840
:1052D000022118003C4B9847BB6801221A433B68E7
:1052E00011001800394B98473B6801211800364BD4
:1052F00098470F23FB181A78304913005B009B185E
:10530000DB00CB1804331A683B68110018002F4BE0
:1053100098470F23FB181A78284913005B009B1845
:10532000DB00CB1808331A683B6811001800284BC3
:1053300098470F23FB181A78204913005B009B182D
:10534000DB00CB180C331A683B6811001800214BA6
:1053500098470F23FB181A78184913005B009B1815
:10536000DB00CB1804331B681B0E9BB203221340D7
:105370009AB27B689A817B689B8901229A429B4101
:105380005B42DAB23B6811001800134B98470F23B9
:10539000FB181A78094913005B009B18DB00CB1837
:1053A00012331A887B68DA8100231800BD4604B0E6
:1053B00080BDC046394C0000F7400000300000209E
:1053C000FD420000A9420000D94000002D4300002A
:1053D000AD450000254600009946000080B582B02A
:1053E00000AF786039607B68002B04D03B68002BED
:1053F00001D0012300E000231A1C01231340DBB27B
:105400001F4A20491800204B98473B681A78597862
:1054100009020A43997809040A43DB781B061343FF
:105420001A001A4B1A407B6811001800184B984755
:105430003B681A79597909020A43997909040A43A0
:10544000DB791B0613431A00124B13408022920291
:105450001A437B68110018000F4B98473B681A7B72
:105460007B68110018000D4B98473B685A7B7B689E
:10547000110018000A4B9847C046BD4602B080BDD7
:10548000E508000038C40000D52C0000FCFEFFFF3A
:10549000E9430000BF1DFDFFD54500003D4600006B
:1054A0000148000080B582B000AF786039607B6849
:1054B000002B04D03B68002B01D0012300E0002327
:1054C0001A1C01231340DBB2294A2A4918002A4B2F
:1054D00098473B681A78597809020A439978090471
:1054E0000A43DB781B0613431A00244B1A407B68DF
:1054F00011001800224B98473B681A795979090224
:105500000A43997909040A43DB791B0613431A00FD
:105510001C4B13401C4A1A437B68110018001B4B9C
:1055200098473B681A7A597A09020A43997A09041A
:105530000A43DB7A1B0613431A007B68110018002C
:10554000134B98473B685A7B7B6811001800114B3E
:105550009847C04601235A427B68110018000E4B41
:105560009847031EF6D1C046BD4602B080BDC04676
:10557000F908000038C40000D52C0000FCFEFFFF35
:10558000E9430000BFDDFDFF40020200D5450000F9
:1055900031470000014800003541000090B585B05A
:1055A00000AF78607B680E22BC181800184B984733
:1055B000030023700F23FB1800221A701EE00F2334
:1055C000FB181A78134913001B019B18CB181033D2
:1055D0001B780E22BA1812789A4208D10F23FB18B2
:1055E0001A7813001B019B180A4A9B180CE00F2322
:1055F000FB181A780F23FB1801321A700F23FB18BF
:105600001B78012BDBD900231800BD4605B090BDE7
:105610009549000054C4000080B584B000AF7860A4
:1056200039603B6818004A4B98470300FB607B6871
:10563000002B04D03B68002B01D0012300E00023A5
:105640001A1C01231340DBB2424A43491800434B62
:105650009847FB68002B02D10D235B4274E03B6846
:10566000012118003E4B984703001A0001235340C4
:10567000DBB2002B26D0FB681A78597809020A435E
:10568000997809040A43DB781B0613431A001C238C
:105690001340BB603B6802211800324B9847031E41
:1056A00008D03B681800304B98473B68022118002F
:1056B0002E4B9847BB6801221A433B681100180023
:1056C0002B4B98473B6801211800284B98477B6873
:1056D0003A681A60FB681A78597809020A4399787F
:1056E00009040A43DB781B0613431A001C231340EA
:1056F000082B06D1FA683B68110018001D4B98472B
:1057000005E0FA683B68110018001B4B9847FB68DE
:105710001A79597909020A43997909040A43DB790C
:105720001B0613431A000723134001D1012200E096
:1057300002227B681A71FB689A7BDB7B1B02134396
:105740009AB27B68DA8000231800BD4604B080BDA1
:105750009D5500001B09000038C40000D52C000036
:1057600035410000B94300008D430000174100009F
:10577000E9430000A5540000DD53000080B582B06D
:1057800000AF7860C0467B6803211800064B98473D
:10579000031EF8D07B6803211800044B9847C046CD
:1057A000BD4602B080BDC046D54100002342000086
:1057B00080B586B000AFF860B9607A60BB6804223B
:1057C000134001D1002324E0FB681800134B9847D5
:1057D00003007B617B685B68002B14D07B685B688F
:1057E000591C7A6851607A69D2B21A707B681B7C46
:1057F000012B08D97B685B68591C7A6851607A690B
:10580000120AD2B21A707B68DB685A1C7B68DA60B5
:1058100001231800BD4606B080BDC046B947000050
:1058200080B586B000AFF860B9607A601A00BB1C22
:105830001A80BB68012213402BD07B681B68002BA9
:1058400018D07B681B68591C7A6811601B787B61D3
:105850007B681B7C012B10D97B681B681B781B02A3
:105860001A007B6913437B617B681B685A1C7B6849
:105870001A6002E0BB1C1B887B617B689B685A1C1A
:105880007B689A607A69FB6811001800034B98479F
:1058900000E0C046BD4606B080BDC046A14700003E
:1058A00080B582B000AF786039607B688022134099
:1058B0000DD0094A3B6811001800084B98473B6817
:1058C00080211800064B984713235B4200E0002319
:1058D0001800BD4602B080BDFFFF00004148000037
:1058E0002342000090B58BB000AF786039607B68D0
:1058F0001B683B6200237B623B681A680823FB1825
:105900001A603B685A680823FB185A600823FB1882
:1059100000229A600823FB180022DA607B681A795B
:105920000823FB181A747B68002B04D03B6A002BF9
:1059300001D0012300E000231A1C01231340DBB235
:10594000344A35491800354B98473B6A07211800FF
:10595000334B9847031E02D004235B4255E03B6A59
:105960001800304B984703001A0001235340DBB264
:10597000002B02D014235B4247E03B6A18002A4BFD
:1059800098470300FB610823FA18F9693B6A18007D
:10599000264B984703001A0001235340DBB2002B2B
:1059A0000FD00823FB18DA680823FB189B689A427B
:1059B00007D37B68DB880822BA18F969386A1C4C5F
:1059C000A0473A6AFB69110018001A4B9847030078
:1059D0007B627B6A002B12DB0823FB189A683B680A
:1059E0009B689A42C9D30823FB18DA683B689B6816
:1059F0009A42C2D30823FB189B687B6200E0C04632
:105A00003B6A18000C4B98477B6A1800BD460BB0E8
:105A100090BDC0467B0A000038C40000D52C0000B1
:105A200035410000554300000D420000B157000011
:105A300021580000A15800007D57000080B582B0B9
:105A400000AF78607B685B78DBB2DB090122134032
:105A50005A1E9341DBB21800BD4602B080BD80B52E
:105A600082B000AF78607B68DB68DB0801221340FE
:105A70005A1E9341DBB21800BD4602B080BD80B50E
:105A800082B000AF78607B68DB681B09012213409D
:105A90005A1E9341DBB21800BD4602B080BD80B5EE
:105AA00084B000AF786039607B68DB68FB60FB68BE
:105AB0003A681340FB60FB681800BD4604B080BD27
:105AC00080B582B000AF78607B689B6902221A4380
:105AD0007B689A61C046BD4602B080BD80B582B089
